{
  "_format": "hh-sol-artifact-1",
  "contractName": "Raffle",
  "sourceName": "contracts/Raffle.sol",
  "abi": [
    {
      "inputs": [
        {
          "internalType": "address",
          "name": "vrfCoordinatorV2",
          "type": "address"
        },
        {
          "internalType": "uint64",
          "name": "subscriptionId",
          "type": "uint64"
        },
        {
          "internalType": "bytes32",
          "name": "gasLane",
          "type": "bytes32"
        },
        {
          "internalType": "uint256",
          "name": "interval",
          "type": "uint256"
        },
        {
          "internalType": "uint256",
          "name": "entranceFee",
          "type": "uint256"
        },
        {
          "internalType": "uint32",
          "name": "callbackGasLimit",
          "type": "uint32"
        }
      ],
      "stateMutability": "nonpayable",
      "type": "constructor"
    },
    {
      "inputs": [
        {
          "internalType": "address",
          "name": "have",
          "type": "address"
        },
        {
          "internalType": "address",
          "name": "want",
          "type": "address"
        }
      ],
      "name": "OnlyCoordinatorCanFulfill",
      "type": "error"
    },
    {
      "inputs": [],
      "name": "Raffle_RaffleNotOpen",
      "type": "error"
    },
    {
      "inputs": [],
      "name": "Raffle_TransferFailed",
      "type": "error"
    },
    {
      "inputs": [
        {
          "internalType": "uint256",
          "name": "currentBalance",
          "type": "uint256"
        },
        {
          "internalType": "uint256",
          "name": "numPlayers",
          "type": "uint256"
        },
        {
          "internalType": "uint256",
          "name": "raffleState",
          "type": "uint256"
        }
      ],
      "name": "Raffle_UpkeepNotNeeded",
      "type": "error"
    },
    {
      "inputs": [],
      "name": "Raffle__SendMoreToEnterRaffle",
      "type": "error"
    },
    {
      "anonymous": false,
      "inputs": [
        {
          "indexed": true,
          "internalType": "address",
          "name": "player",
          "type": "address"
        }
      ],
      "name": "RaffleEnter",
      "type": "event"
    },
    {
      "anonymous": false,
      "inputs": [
        {
          "indexed": true,
          "internalType": "uint256",
          "name": "requestId",
          "type": "uint256"
        }
      ],
      "name": "RequestedRaffleWinner",
      "type": "event"
    },
    {
      "anonymous": false,
      "inputs": [
        {
          "indexed": true,
          "internalType": "address",
          "name": "winner",
          "type": "address"
        }
      ],
      "name": "WinnerPicked",
      "type": "event"
    },
    {
      "inputs": [
        {
          "internalType": "bytes",
          "name": "",
          "type": "bytes"
        }
      ],
      "name": "checkUpkeep",
      "outputs": [
        {
          "internalType": "bool",
          "name": "upkeepNeeded",
          "type": "bool"
        },
        {
          "internalType": "bytes",
          "name": "",
          "type": "bytes"
        }
      ],
      "stateMutability": "view",
      "type": "function"
    },
    {
      "inputs": [],
      "name": "enterRaffle",
      "outputs": [],
      "stateMutability": "payable",
      "type": "function"
    },
    {
      "inputs": [],
      "name": "getEntranceFee",
      "outputs": [
        {
          "internalType": "uint256",
          "name": "",
          "type": "uint256"
        }
      ],
      "stateMutability": "view",
      "type": "function"
    },
    {
      "inputs": [],
      "name": "getInterval",
      "outputs": [
        {
          "internalType": "uint256",
          "name": "",
          "type": "uint256"
        }
      ],
      "stateMutability": "view",
      "type": "function"
    },
    {
      "inputs": [],
      "name": "getLatestTimeStamp",
      "outputs": [
        {
          "internalType": "uint256",
          "name": "",
          "type": "uint256"
        }
      ],
      "stateMutability": "view",
      "type": "function"
    },
    {
      "inputs": [],
      "name": "getNumPlayers",
      "outputs": [
        {
          "internalType": "uint256",
          "name": "",
          "type": "uint256"
        }
      ],
      "stateMutability": "view",
      "type": "function"
    },
    {
      "inputs": [],
      "name": "getNumWords",
      "outputs": [
        {
          "internalType": "uint32",
          "name": "",
          "type": "uint32"
        }
      ],
      "stateMutability": "pure",
      "type": "function"
    },
    {
      "inputs": [
        {
          "internalType": "uint256",
          "name": "index",
          "type": "uint256"
        }
      ],
      "name": "getPlayer",
      "outputs": [
        {
          "internalType": "address",
          "name": "",
          "type": "address"
        }
      ],
      "stateMutability": "view",
      "type": "function"
    },
    {
      "inputs": [],
      "name": "getRaffleState",
      "outputs": [
        {
          "internalType": "enum Raffle.RaffleState",
          "name": "",
          "type": "uint8"
        }
      ],
      "stateMutability": "view",
      "type": "function"
    },
    {
      "inputs": [],
      "name": "getRecentWinner",
      "outputs": [
        {
          "internalType": "address",
          "name": "",
          "type": "address"
        }
      ],
      "stateMutability": "view",
      "type": "function"
    },
    {
      "inputs": [],
      "name": "getRequestConfirmations",
      "outputs": [
        {
          "internalType": "uint16",
          "name": "",
          "type": "uint16"
        }
      ],
      "stateMutability": "pure",
      "type": "function"
    },
    {
      "inputs": [
        {
          "internalType": "bytes",
          "name": "",
          "type": "bytes"
        }
      ],
      "name": "performUpkeep",
      "outputs": [],
      "stateMutability": "nonpayable",
      "type": "function"
    },
    {
      "inputs": [
        {
          "internalType": "uint256",
          "name": "requestId",
          "type": "uint256"
        },
        {
          "internalType": "uint256[]",
          "name": "randomWords",
          "type": "uint256[]"
        }
      ],
      "name": "rawFulfillRandomWords",
      "outputs": [],
      "stateMutability": "nonpayable",
      "type": "function"
    }
  ],
  "bytecode": "0x6101606040523480156200001257600080fd5b5060405162001865380380620018658339818101604052810190620000389190620001ad565b858073ffffffffffffffffffffffffffffffffffffffff1660808173ffffffffffffffffffffffffffffffffffffffff1660601b81525050508573ffffffffffffffffffffffffffffffffffffffff1660a08173ffffffffffffffffffffffffffffffffffffffff1660601b815250508360e081815250508261014081815250508467ffffffffffffffff1660c08167ffffffffffffffff1660c01b815250508161012081815250506000600160146101000a81548160ff021916908360018111156200010a5762000109620002b5565b5b0217905550426002819055508063ffffffff166101008163ffffffff1660e01b815250505050505050506200036b565b6000815190506200014b81620002e9565b92915050565b600081519050620001628162000303565b92915050565b60008151905062000179816200031d565b92915050565b600081519050620001908162000337565b92915050565b600081519050620001a78162000351565b92915050565b60008060008060008060c08789031215620001cd57620001cc620002e4565b5b6000620001dd89828a016200013a565b9650506020620001f089828a0162000196565b95505060406200020389828a0162000151565b94505060606200021689828a0162000168565b93505060806200022989828a0162000168565b92505060a06200023c89828a016200017f565b9150509295509295509295565b6000620002568262000267565b9050919050565b6000819050919050565b600073ffffffffffffffffffffffffffffffffffffffff82169050919050565b6000819050919050565b600063ffffffff82169050919050565b600067ffffffffffffffff82169050919050565b7f4e487b7100000000000000000000000000000000000000000000000000000000600052602160045260246000fd5b600080fd5b620002f48162000249565b81146200030057600080fd5b50565b6200030e816200025d565b81146200031a57600080fd5b50565b620003288162000287565b81146200033457600080fd5b50565b620003428162000291565b81146200034e57600080fd5b50565b6200035c81620002a1565b81146200036857600080fd5b50565b60805160601c60a05160601c60c05160c01c60e0516101005160e01c610120516101405161147e620003e7600039600081816107f801526108660152600081816102fa01526103f7015260006106a5015260006106610152600061068201526000610625015260008181610337015261038b015261147e6000f3fe6080604052600436106100c25760003560e01c8063473f1ddc1161007f5780635f1b0fd8116100595780635f1b0fd8146102255780636e04ff0d1461025057806391ad27b41461028e578063e55ae4e8146102b9576100c2565b8063473f1ddc146101a457806353a2c19a146101cf57806355c9e926146101fa576100c2565b806309bc33a7146100c7578063115cbaf5146100f25780631fe543e31461011d5780632cfcc53914610146578063320229eb146101505780634585e33b1461017b575b600080fd5b3480156100d357600080fd5b506100dc6102f6565b6040516100e99190611069565b60405180910390f35b3480156100fe57600080fd5b5061010761031e565b6040516101149190611033565b60405180910390f35b34801561012957600080fd5b50610144600480360381019061013f9190610e27565b610335565b005b61014e6103f5565b005b34801561015c57600080fd5b50610165610564565b6040516101729190611069565b60405180910390f35b34801561018757600080fd5b506101a2600480360381019061019d9190610d37565b61056e565b005b3480156101b057600080fd5b506101b961076d565b6040516101c69190610f6c565b60405180910390f35b3480156101db57600080fd5b506101e4610797565b6040516101f191906110bb565b60405180910390f35b34801561020657600080fd5b5061020f6107a0565b60405161021c9190611069565b60405180910390f35b34801561023157600080fd5b5061023a6107ac565b604051610247919061104e565b60405180910390f35b34801561025c57600080fd5b5061027760048036038101906102729190610d84565b6107b5565b604051610285929190610fb0565b60405180910390f35b34801561029a57600080fd5b506102a3610862565b6040516102b09190611069565b60405180910390f35b3480156102c557600080fd5b506102e060048036038101906102db9190610dcd565b61088a565b6040516102ed9190610f6c565b60405180910390f35b60007f0000000000000000000000000000000000000000000000000000000000000000905090565b6000600160149054906101000a900460ff16905090565b7f000000000000000000000000000000000000000000000000000000000000000073ffffffffffffffffffffffffffffffffffffffff163373ffffffffffffffffffffffffffffffffffffffff16146103e757337f00000000000000000000000000000000000000000000000000000000000000006040517f1cf993f40000000000000000000000000000000000000000000000000000000081526004016103de929190610f87565b60405180910390fd5b6103f182826108d1565b5050565b7f000000000000000000000000000000000000000000000000000000000000000034101561044f576040517f3038c00a00000000000000000000000000000000000000000000000000000000815260040160405180910390fd5b600060018111156104635761046261135e565b5b600160149054906101000a900460ff1660018111156104855761048461135e565b5b146104bc576040517f6eac21ed00000000000000000000000000000000000000000000000000000000815260040160405180910390fd5b6000339080600181540180825580915050600190039060005260206000200160009091909190916101000a81548173ffffffffffffffffffffffffffffffffffffffff021916908373ffffffffffffffffffffffffffffffffffffffff1602179055503373ffffffffffffffffffffffffffffffffffffffff167f0805e1d667bddb8a95f0f09880cf94f403fb596ce79928d9f29b74203ba284d460405160405180910390a2565b6000600254905090565b6000610588604051806020016040528060008152506107b5565b509050806105f75747600080549050600160149054906101000a900460ff1660018111156105b9576105b861135e565b5b6040517fe059521b0000000000000000000000000000000000000000000000000000000081526004016105ee93929190611084565b60405180910390fd5b60018060146101000a81548160ff0219169083600181111561061c5761061b61135e565b5b021790555060007f000000000000000000000000000000000000000000000000000000000000000073ffffffffffffffffffffffffffffffffffffffff16635d3b1d307f00000000000000000000000000000000000000000000000000000000000000007f000000000000000000000000000000000000000000000000000000000000000060037f000000000000000000000000000000000000000000000000000000000000000060016040518663ffffffff1660e01b81526004016106e6959493929190610fe0565b602060405180830381600087803b15801561070057600080fd5b505af1158015610714573d6000803e3d6000fd5b505050506040513d601f19601f820116820180604052508101906107389190610dfa565b9050807fcd6e45c8998311cab7e9d4385596cac867e20a0587194b954fa3a731c93ce78b60405160405180910390a250505050565b6000600160009054906101000a900473ffffffffffffffffffffffffffffffffffffffff16905090565b60006001905090565b60008080549050905090565b60006003905090565b600060606000600160149054906101000a900460ff1660018111156107dd576107dc61135e565b5b600060018111156107f1576107f061135e565b5b14905060007f000000000000000000000000000000000000000000000000000000000000000060025442610825919061117f565b119050600080600080549050119050600080471190508280156108455750835b801561084e5750805b80156108575750815b955050505050915091565b60007f0000000000000000000000000000000000000000000000000000000000000000905090565b600080828154811061089f5761089e61138d565b5b9060005260206000200160009054906101000a900473ffffffffffffffffffffffffffffffffffffffff169050919050565b60008080549050826000815181106108ec576108eb61138d565b5b60200260200101516108fe91906112cf565b905060008082815481106109155761091461138d565b5b9060005260206000200160009054906101000a900473ffffffffffffffffffffffffffffffffffffffff16905080600160006101000a81548173ffffffffffffffffffffffffffffffffffffffff021916908373ffffffffffffffffffffffffffffffffffffffff1602179055506000600160146101000a81548160ff021916908360018111156109a9576109a861135e565b5b0217905550600067ffffffffffffffff8111156109c9576109c86113bc565b5b6040519080825280602002602001820160405280156109f75781602001602082028036833780820191505090505b5060009080519060200190610a0d929190610b02565b504260028190555060008173ffffffffffffffffffffffffffffffffffffffff1647604051610a3b90610f57565b60006040518083038185875af1925050503d8060008114610a78576040519150601f19603f3d011682016040523d82523d6000602084013e610a7d565b606091505b5050905080610ab8576040517fba31c4f300000000000000000000000000000000000000000000000000000000815260040160405180910390fd5b8173ffffffffffffffffffffffffffffffffffffffff167f5b690ec4a06fe979403046eaeea5b3ce38524683c3001f662c8b5a829632f7df60405160405180910390a25050505050565b828054828255906000526020600020908101928215610b7b579160200282015b82811115610b7a5782518260006101000a81548173ffffffffffffffffffffffffffffffffffffffff021916908373ffffffffffffffffffffffffffffffffffffffff16021790555091602001919060010190610b22565b5b509050610b889190610b8c565b5090565b5b80821115610ba5576000816000905550600101610b8d565b5090565b6000610bbc610bb7846110fb565b6110d6565b90508083825260208201905082856020860282011115610bdf57610bde6113f5565b5b60005b85811015610c0f5781610bf58882610d0d565b845260208401935060208301925050600181019050610be2565b5050509392505050565b6000610c2c610c2784611127565b6110d6565b905082815260208101848484011115610c4857610c476113fa565b5b610c5384828561125c565b509392505050565b600082601f830112610c7057610c6f6113f0565b5b8135610c80848260208601610ba9565b91505092915050565b60008083601f840112610c9f57610c9e6113f0565b5b8235905067ffffffffffffffff811115610cbc57610cbb6113eb565b5b602083019150836001820283011115610cd857610cd76113f5565b5b9250929050565b600082601f830112610cf457610cf36113f0565b5b8135610d04848260208601610c19565b91505092915050565b600081359050610d1c81611431565b92915050565b600081519050610d3181611431565b92915050565b60008060208385031215610d4e57610d4d611404565b5b600083013567ffffffffffffffff811115610d6c57610d6b6113ff565b5b610d7885828601610c89565b92509250509250929050565b600060208284031215610d9a57610d99611404565b5b600082013567ffffffffffffffff811115610db857610db76113ff565b5b610dc484828501610cdf565b91505092915050565b600060208284031215610de357610de2611404565b5b6000610df184828501610d0d565b91505092915050565b600060208284031215610e1057610e0f611404565b5b6000610e1e84828501610d22565b91505092915050565b60008060408385031215610e3e57610e3d611404565b5b6000610e4c85828601610d0d565b925050602083013567ffffffffffffffff811115610e6d57610e6c6113ff565b5b610e7985828601610c5b565b9150509250929050565b610e8c816111b3565b82525050565b610e9b816111c5565b82525050565b610eaa816111d1565b82525050565b6000610ebb82611158565b610ec58185611163565b9350610ed581856020860161126b565b610ede81611409565b840191505092915050565b610ef28161124a565b82525050565b6000610f05600083611174565b9150610f108261141a565b600082019050919050565b610f24816111ee565b82525050565b610f338161121c565b82525050565b610f4281611226565b82525050565b610f5181611236565b82525050565b6000610f6282610ef8565b9150819050919050565b6000602082019050610f816000830184610e83565b92915050565b6000604082019050610f9c6000830185610e83565b610fa96020830184610e83565b9392505050565b6000604082019050610fc56000830185610e92565b8181036020830152610fd78184610eb0565b90509392505050565b600060a082019050610ff56000830188610ea1565b6110026020830187610f48565b61100f6040830186610f1b565b61101c6060830185610f39565b6110296080830184610f39565b9695505050505050565b60006020820190506110486000830184610ee9565b92915050565b60006020820190506110636000830184610f1b565b92915050565b600060208201905061107e6000830184610f2a565b92915050565b60006060820190506110996000830186610f2a565b6110a66020830185610f2a565b6110b36040830184610f2a565b949350505050565b60006020820190506110d06000830184610f39565b92915050565b60006110e06110f1565b90506110ec828261129e565b919050565b6000604051905090565b600067ffffffffffffffff821115611116576111156113bc565b5b602082029050602081019050919050565b600067ffffffffffffffff821115611142576111416113bc565b5b61114b82611409565b9050602081019050919050565b600081519050919050565b600082825260208201905092915050565b600081905092915050565b600061118a8261121c565b91506111958361121c565b9250828210156111a8576111a7611300565b5b828203905092915050565b60006111be826111fc565b9050919050565b60008115159050919050565b6000819050919050565b60008190506111e98261141d565b919050565b600061ffff82169050919050565b600073ffffffffffffffffffffffffffffffffffffffff82169050919050565b6000819050919050565b600063ffffffff82169050919050565b600067ffffffffffffffff82169050919050565b6000611255826111db565b9050919050565b82818337600083830152505050565b60005b8381101561128957808201518184015260208101905061126e565b83811115611298576000848401525b50505050565b6112a782611409565b810181811067ffffffffffffffff821117156112c6576112c56113bc565b5b80604052505050565b60006112da8261121c565b91506112e58361121c565b9250826112f5576112f461132f565b5b828206905092915050565b7f4e487b7100000000000000000000000000000000000000000000000000000000600052601160045260246000fd5b7f4e487b7100000000000000000000000000000000000000000000000000000000600052601260045260246000fd5b7f4e487b7100000000000000000000000000000000000000000000000000000000600052602160045260246000fd5b7f4e487b7100000000000000000000000000000000000000000000000000000000600052603260045260246000fd5b7f4e487b7100000000000000000000000000000000000000000000000000000000600052604160045260246000fd5b600080fd5b600080fd5b600080fd5b600080fd5b600080fd5b600080fd5b6000601f19601f8301169050919050565b50565b6002811061142e5761142d61135e565b5b50565b61143a8161121c565b811461144557600080fd5b5056fea26469706673582212201045184b451e38140267942e0dff3b16e06b479d1c84e9294ed1662bb9b3e5d864736f6c63430008070033",
  "linkReferences": {},
  "deployedLinkReferences": {}
}