{
  "_format": "hh-sol-artifact-1",
  "contractName": "Raffle",
  "sourceName": "contracts/Raffle.sol",
  "abi": [
    {
      "inputs": [
        {
          "internalType": "address",
          "name": "vrfCoordinatorV2",
          "type": "address"
        },
        {
          "internalType": "uint64",
          "name": "subscriptionId",
          "type": "uint64"
        },
        {
          "internalType": "bytes32",
          "name": "gasLane",
          "type": "bytes32"
        },
        {
          "internalType": "uint256",
          "name": "interval",
          "type": "uint256"
        },
        {
          "internalType": "uint256",
          "name": "entranceFee",
          "type": "uint256"
        },
        {
          "internalType": "uint32",
          "name": "callbackGasLimit",
          "type": "uint32"
        }
      ],
      "stateMutability": "nonpayable",
      "type": "constructor"
    },
    {
      "inputs": [
        {
          "internalType": "address",
          "name": "have",
          "type": "address"
        },
        {
          "internalType": "address",
          "name": "want",
          "type": "address"
        }
      ],
      "name": "OnlyCoordinatorCanFulfill",
      "type": "error"
    },
    {
      "inputs": [],
      "name": "Raffle_RaffleNotOpen",
      "type": "error"
    },
    {
      "inputs": [],
      "name": "Raffle_TransferFailed",
      "type": "error"
    },
    {
      "inputs": [
        {
          "internalType": "uint256",
          "name": "currentBalance",
          "type": "uint256"
        },
        {
          "internalType": "uint256",
          "name": "numPlayers",
          "type": "uint256"
        },
        {
          "internalType": "uint256",
          "name": "raffleState",
          "type": "uint256"
        }
      ],
      "name": "Raffle_UpkeepNotNeeded",
      "type": "error"
    },
    {
      "inputs": [],
      "name": "Raffle__SendMoreToEnterRaffle",
      "type": "error"
    },
    {
      "anonymous": false,
      "inputs": [
        {
          "indexed": true,
          "internalType": "address",
          "name": "player",
          "type": "address"
        }
      ],
      "name": "RaffleEnter",
      "type": "event"
    },
    {
      "anonymous": false,
      "inputs": [
        {
          "indexed": true,
          "internalType": "uint256",
          "name": "requestId",
          "type": "uint256"
        }
      ],
      "name": "RequestedRaffleWinner",
      "type": "event"
    },
    {
      "anonymous": false,
      "inputs": [
        {
          "indexed": true,
          "internalType": "address",
          "name": "winner",
          "type": "address"
        }
      ],
      "name": "WinnerPicked",
      "type": "event"
    },
    {
      "inputs": [
        {
          "internalType": "bytes",
          "name": "",
          "type": "bytes"
        }
      ],
      "name": "checkUpkeep",
      "outputs": [
        {
          "internalType": "bool",
          "name": "upkeepNeeded",
          "type": "bool"
        },
        {
          "internalType": "bytes",
          "name": "",
          "type": "bytes"
        }
      ],
      "stateMutability": "view",
      "type": "function"
    },
    {
      "inputs": [],
      "name": "enterRaffle",
      "outputs": [],
      "stateMutability": "payable",
      "type": "function"
    },
    {
      "inputs": [],
      "name": "getEntranceFee",
      "outputs": [
        {
          "internalType": "uint256",
          "name": "",
          "type": "uint256"
        }
      ],
      "stateMutability": "view",
      "type": "function"
    },
    {
      "inputs": [],
      "name": "getLatestTimeStamp",
      "outputs": [
        {
          "internalType": "uint256",
          "name": "",
          "type": "uint256"
        }
      ],
      "stateMutability": "view",
      "type": "function"
    },
    {
      "inputs": [],
      "name": "getNumPlayers",
      "outputs": [
        {
          "internalType": "uint256",
          "name": "",
          "type": "uint256"
        }
      ],
      "stateMutability": "view",
      "type": "function"
    },
    {
      "inputs": [],
      "name": "getNumWords",
      "outputs": [
        {
          "internalType": "uint32",
          "name": "",
          "type": "uint32"
        }
      ],
      "stateMutability": "pure",
      "type": "function"
    },
    {
      "inputs": [
        {
          "internalType": "uint256",
          "name": "index",
          "type": "uint256"
        }
      ],
      "name": "getPlayer",
      "outputs": [
        {
          "internalType": "address",
          "name": "",
          "type": "address"
        }
      ],
      "stateMutability": "view",
      "type": "function"
    },
    {
      "inputs": [],
      "name": "getRaffleState",
      "outputs": [
        {
          "internalType": "enum Raffle.RaffleState",
          "name": "",
          "type": "uint8"
        }
      ],
      "stateMutability": "view",
      "type": "function"
    },
    {
      "inputs": [],
      "name": "getRecentWinner",
      "outputs": [
        {
          "internalType": "address",
          "name": "",
          "type": "address"
        }
      ],
      "stateMutability": "view",
      "type": "function"
    },
    {
      "inputs": [],
      "name": "getRequestConfirmations",
      "outputs": [
        {
          "internalType": "uint16",
          "name": "",
          "type": "uint16"
        }
      ],
      "stateMutability": "pure",
      "type": "function"
    },
    {
      "inputs": [
        {
          "internalType": "bytes",
          "name": "",
          "type": "bytes"
        }
      ],
      "name": "performUpkeep",
      "outputs": [],
      "stateMutability": "nonpayable",
      "type": "function"
    },
    {
      "inputs": [
        {
          "internalType": "uint256",
          "name": "requestId",
          "type": "uint256"
        },
        {
          "internalType": "uint256[]",
          "name": "randomWords",
          "type": "uint256[]"
        }
      ],
      "name": "rawFulfillRandomWords",
      "outputs": [],
      "stateMutability": "nonpayable",
      "type": "function"
    }
  ],
  "bytecode": "0x6101606040523480156200001257600080fd5b50604051620017f0380380620017f08339818101604052810190620000389190620001ad565b858073ffffffffffffffffffffffffffffffffffffffff1660808173ffffffffffffffffffffffffffffffffffffffff1660601b81525050508573ffffffffffffffffffffffffffffffffffffffff1660a08173ffffffffffffffffffffffffffffffffffffffff1660601b815250508360e081815250508261014081815250508467ffffffffffffffff1660c08167ffffffffffffffff1660c01b815250508161012081815250506000600160146101000a81548160ff021916908360018111156200010a5762000109620002b5565b5b0217905550426002819055508063ffffffff166101008163ffffffff1660e01b815250505050505050506200036b565b6000815190506200014b81620002e9565b92915050565b600081519050620001628162000303565b92915050565b60008151905062000179816200031d565b92915050565b600081519050620001908162000337565b92915050565b600081519050620001a78162000351565b92915050565b60008060008060008060c08789031215620001cd57620001cc620002e4565b5b6000620001dd89828a016200013a565b9650506020620001f089828a0162000196565b95505060406200020389828a0162000151565b94505060606200021689828a0162000168565b93505060806200022989828a0162000168565b92505060a06200023c89828a016200017f565b9150509295509295509295565b6000620002568262000267565b9050919050565b6000819050919050565b600073ffffffffffffffffffffffffffffffffffffffff82169050919050565b6000819050919050565b600063ffffffff82169050919050565b600067ffffffffffffffff82169050919050565b7f4e487b7100000000000000000000000000000000000000000000000000000000600052602160045260246000fd5b600080fd5b620002f48162000249565b81146200030057600080fd5b50565b6200030e816200025d565b81146200031a57600080fd5b50565b620003288162000287565b81146200033457600080fd5b50565b620003428162000291565b81146200034e57600080fd5b50565b6200035c81620002a1565b81146200036857600080fd5b50565b60805160601c60a05160601c60c05160c01c60e0516101005160e01c6101205161014051611410620003e060003960006107b20152600081816102b401526103b10152600061065f0152600061061b0152600061063c015260006105df0152600081816102f1015261034501526114106000f3fe6080604052600436106100a75760003560e01c8063473f1ddc11610064578063473f1ddc1461018957806353a2c19a146101b457806355c9e926146101df5780635f1b0fd81461020a5780636e04ff0d14610235578063e55ae4e814610273576100a7565b806309bc33a7146100ac578063115cbaf5146100d75780631fe543e3146101025780632cfcc5391461012b578063320229eb146101355780634585e33b14610160575b600080fd5b3480156100b857600080fd5b506100c16102b0565b6040516100ce9190610ffb565b60405180910390f35b3480156100e357600080fd5b506100ec6102d8565b6040516100f99190610fc5565b60405180910390f35b34801561010e57600080fd5b5061012960048036038101906101249190610db9565b6102ef565b005b6101336103af565b005b34801561014157600080fd5b5061014a61051e565b6040516101579190610ffb565b60405180910390f35b34801561016c57600080fd5b5061018760048036038101906101829190610cc9565b610528565b005b34801561019557600080fd5b5061019e610727565b6040516101ab9190610efe565b60405180910390f35b3480156101c057600080fd5b506101c9610751565b6040516101d6919061104d565b60405180910390f35b3480156101eb57600080fd5b506101f461075a565b6040516102019190610ffb565b60405180910390f35b34801561021657600080fd5b5061021f610766565b60405161022c9190610fe0565b60405180910390f35b34801561024157600080fd5b5061025c60048036038101906102579190610d16565b61076f565b60405161026a929190610f42565b60405180910390f35b34801561027f57600080fd5b5061029a60048036038101906102959190610d5f565b61081c565b6040516102a79190610efe565b60405180910390f35b60007f0000000000000000000000000000000000000000000000000000000000000000905090565b6000600160149054906101000a900460ff16905090565b7f000000000000000000000000000000000000000000000000000000000000000073ffffffffffffffffffffffffffffffffffffffff163373ffffffffffffffffffffffffffffffffffffffff16146103a157337f00000000000000000000000000000000000000000000000000000000000000006040517f1cf993f4000000000000000000000000000000000000000000000000000000008152600401610398929190610f19565b60405180910390fd5b6103ab8282610863565b5050565b7f0000000000000000000000000000000000000000000000000000000000000000341015610409576040517f3038c00a00000000000000000000000000000000000000000000000000000000815260040160405180910390fd5b6000600181111561041d5761041c6112f0565b5b600160149054906101000a900460ff16600181111561043f5761043e6112f0565b5b14610476576040517f6eac21ed00000000000000000000000000000000000000000000000000000000815260040160405180910390fd5b6000339080600181540180825580915050600190039060005260206000200160009091909190916101000a81548173ffffffffffffffffffffffffffffffffffffffff021916908373ffffffffffffffffffffffffffffffffffffffff1602179055503373ffffffffffffffffffffffffffffffffffffffff167f0805e1d667bddb8a95f0f09880cf94f403fb596ce79928d9f29b74203ba284d460405160405180910390a2565b6000600254905090565b60006105426040518060200160405280600081525061076f565b509050806105b15747600080549050600160149054906101000a900460ff166001811115610573576105726112f0565b5b6040517fe059521b0000000000000000000000000000000000000000000000000000000081526004016105a893929190611016565b60405180910390fd5b60018060146101000a81548160ff021916908360018111156105d6576105d56112f0565b5b021790555060007f000000000000000000000000000000000000000000000000000000000000000073ffffffffffffffffffffffffffffffffffffffff16635d3b1d307f00000000000000000000000000000000000000000000000000000000000000007f000000000000000000000000000000000000000000000000000000000000000060037f000000000000000000000000000000000000000000000000000000000000000060016040518663ffffffff1660e01b81526004016106a0959493929190610f72565b602060405180830381600087803b1580156106ba57600080fd5b505af11580156106ce573d6000803e3d6000fd5b505050506040513d601f19601f820116820180604052508101906106f29190610d8c565b9050807fcd6e45c8998311cab7e9d4385596cac867e20a0587194b954fa3a731c93ce78b60405160405180910390a250505050565b6000600160009054906101000a900473ffffffffffffffffffffffffffffffffffffffff16905090565b60006001905090565b60008080549050905090565b60006003905090565b600060606000600160149054906101000a900460ff166001811115610797576107966112f0565b5b600060018111156107ab576107aa6112f0565b5b14905060007f0000000000000000000000000000000000000000000000000000000000000000600254426107df9190611111565b119050600080600080549050119050600080471190508280156107ff5750835b80156108085750805b80156108115750815b955050505050915091565b60008082815481106108315761083061131f565b5b9060005260206000200160009054906101000a900473ffffffffffffffffffffffffffffffffffffffff169050919050565b600080805490508260008151811061087e5761087d61131f565b5b60200260200101516108909190611261565b905060008082815481106108a7576108a661131f565b5b9060005260206000200160009054906101000a900473ffffffffffffffffffffffffffffffffffffffff16905080600160006101000a81548173ffffffffffffffffffffffffffffffffffffffff021916908373ffffffffffffffffffffffffffffffffffffffff1602179055506000600160146101000a81548160ff0219169083600181111561093b5761093a6112f0565b5b0217905550600067ffffffffffffffff81111561095b5761095a61134e565b5b6040519080825280602002602001820160405280156109895781602001602082028036833780820191505090505b506000908051906020019061099f929190610a94565b504260028190555060008173ffffffffffffffffffffffffffffffffffffffff16476040516109cd90610ee9565b60006040518083038185875af1925050503d8060008114610a0a576040519150601f19603f3d011682016040523d82523d6000602084013e610a0f565b606091505b5050905080610a4a576040517fba31c4f300000000000000000000000000000000000000000000000000000000815260040160405180910390fd5b8173ffffffffffffffffffffffffffffffffffffffff167f5b690ec4a06fe979403046eaeea5b3ce38524683c3001f662c8b5a829632f7df60405160405180910390a25050505050565b828054828255906000526020600020908101928215610b0d579160200282015b82811115610b0c5782518260006101000a81548173ffffffffffffffffffffffffffffffffffffffff021916908373ffffffffffffffffffffffffffffffffffffffff16021790555091602001919060010190610ab4565b5b509050610b1a9190610b1e565b5090565b5b80821115610b37576000816000905550600101610b1f565b5090565b6000610b4e610b498461108d565b611068565b90508083825260208201905082856020860282011115610b7157610b70611387565b5b60005b85811015610ba15781610b878882610c9f565b845260208401935060208301925050600181019050610b74565b5050509392505050565b6000610bbe610bb9846110b9565b611068565b905082815260208101848484011115610bda57610bd961138c565b5b610be58482856111ee565b509392505050565b600082601f830112610c0257610c01611382565b5b8135610c12848260208601610b3b565b91505092915050565b60008083601f840112610c3157610c30611382565b5b8235905067ffffffffffffffff811115610c4e57610c4d61137d565b5b602083019150836001820283011115610c6a57610c69611387565b5b9250929050565b600082601f830112610c8657610c85611382565b5b8135610c96848260208601610bab565b91505092915050565b600081359050610cae816113c3565b92915050565b600081519050610cc3816113c3565b92915050565b60008060208385031215610ce057610cdf611396565b5b600083013567ffffffffffffffff811115610cfe57610cfd611391565b5b610d0a85828601610c1b565b92509250509250929050565b600060208284031215610d2c57610d2b611396565b5b600082013567ffffffffffffffff811115610d4a57610d49611391565b5b610d5684828501610c71565b91505092915050565b600060208284031215610d7557610d74611396565b5b6000610d8384828501610c9f565b91505092915050565b600060208284031215610da257610da1611396565b5b6000610db084828501610cb4565b91505092915050565b60008060408385031215610dd057610dcf611396565b5b6000610dde85828601610c9f565b925050602083013567ffffffffffffffff811115610dff57610dfe611391565b5b610e0b85828601610bed565b9150509250929050565b610e1e81611145565b82525050565b610e2d81611157565b82525050565b610e3c81611163565b82525050565b6000610e4d826110ea565b610e5781856110f5565b9350610e678185602086016111fd565b610e708161139b565b840191505092915050565b610e84816111dc565b82525050565b6000610e97600083611106565b9150610ea2826113ac565b600082019050919050565b610eb681611180565b82525050565b610ec5816111ae565b82525050565b610ed4816111b8565b82525050565b610ee3816111c8565b82525050565b6000610ef482610e8a565b9150819050919050565b6000602082019050610f136000830184610e15565b92915050565b6000604082019050610f2e6000830185610e15565b610f3b6020830184610e15565b9392505050565b6000604082019050610f576000830185610e24565b8181036020830152610f698184610e42565b90509392505050565b600060a082019050610f876000830188610e33565b610f946020830187610eda565b610fa16040830186610ead565b610fae6060830185610ecb565b610fbb6080830184610ecb565b9695505050505050565b6000602082019050610fda6000830184610e7b565b92915050565b6000602082019050610ff56000830184610ead565b92915050565b60006020820190506110106000830184610ebc565b92915050565b600060608201905061102b6000830186610ebc565b6110386020830185610ebc565b6110456040830184610ebc565b949350505050565b60006020820190506110626000830184610ecb565b92915050565b6000611072611083565b905061107e8282611230565b919050565b6000604051905090565b600067ffffffffffffffff8211156110a8576110a761134e565b5b602082029050602081019050919050565b600067ffffffffffffffff8211156110d4576110d361134e565b5b6110dd8261139b565b9050602081019050919050565b600081519050919050565b600082825260208201905092915050565b600081905092915050565b600061111c826111ae565b9150611127836111ae565b92508282101561113a57611139611292565b5b828203905092915050565b60006111508261118e565b9050919050565b60008115159050919050565b6000819050919050565b600081905061117b826113af565b919050565b600061ffff82169050919050565b600073ffffffffffffffffffffffffffffffffffffffff82169050919050565b6000819050919050565b600063ffffffff82169050919050565b600067ffffffffffffffff82169050919050565b60006111e78261116d565b9050919050565b82818337600083830152505050565b60005b8381101561121b578082015181840152602081019050611200565b8381111561122a576000848401525b50505050565b6112398261139b565b810181811067ffffffffffffffff821117156112585761125761134e565b5b80604052505050565b600061126c826111ae565b9150611277836111ae565b925082611287576112866112c1565b5b828206905092915050565b7f4e487b7100000000000000000000000000000000000000000000000000000000600052601160045260246000fd5b7f4e487b7100000000000000000000000000000000000000000000000000000000600052601260045260246000fd5b7f4e487b7100000000000000000000000000000000000000000000000000000000600052602160045260246000fd5b7f4e487b7100000000000000000000000000000000000000000000000000000000600052603260045260246000fd5b7f4e487b7100000000000000000000000000000000000000000000000000000000600052604160045260246000fd5b600080fd5b600080fd5b600080fd5b600080fd5b600080fd5b600080fd5b6000601f19601f8301169050919050565b50565b600281106113c0576113bf6112f0565b5b50565b6113cc816111ae565b81146113d757600080fd5b5056fea264697066735822122047f9854d59eb2d44f5b0683d4a287694519c66b4ec15f3968a48ec4cb1f94b4e64736f6c63430008070033",
  "linkReferences": {},
  "deployedLinkReferences": {}
}